:04000000BAEF08F05B
:100600000058203A200059203A20005A203A200071
:0106100000E9
:10061200026E4FD3000E9BEC08F07E0E9BEC08F0AE
:10062200090E9BEC08F0090E9BEC08F0090E9BECFE
:1006320008F07E0E9BEC08F0000E9BEC08F0120016
:10064200000E9BEC08F07F0E9BEC08F0490E9BEC31
:1006520008F0490E9BEC08F0490E9BEC08F0360EB0
:100662009BEC08F0000E9BEC08F01200000E9BECD5
:1006720008F03E0E9BEC08F0410E9BEC08F0410E98
:100682009BEC08F0410E9BEC08F0220E9BEC08F06C
:10069200000E9BEC08F01200000E9BEC08F07F0E9F
:1006A2009BEC08F0410E9BEC08F0410E9BEC08F02D
:1006B200410E9BEC08F03E0E9BEC08F0000E9BEC0A
:1006C20008F01200000E9BEC08F07F0E9BEC08F085
:1006D200490E9BEC08F0490E9BEC08F0490E9BEC8E
:1006E20008F0410E9BEC08F0000E9BEC08F01200A3
:1006F200000E9BEC08F07F0E9BEC08F0090E9BECC1
:1007020008F0090E9BEC08F0090E9BEC08F0010EB4
:100712009BEC08F0000E9BEC08F01200000E9BEC24
:1007220008F03E0E9BEC08F0410E9BEC08F0410EE7
:100732009BEC08F0490E9BEC08F03A0E9BEC08F09B
:10074200000E9BEC08F01200000E9BEC08F07F0EEE
:100752009BEC08F0080E9BEC08F0080E9BEC08F0EE
:10076200080E9BEC08F07F0E9BEC08F0000E9BEC51
:1007720008F01200000E9BEC08F0000E9BEC08F053
:10078200410E9BEC08F07F0E9BEC08F0410E9BECB7
:1007920008F0000E9BEC08F0000E9BEC08F0120033
:1007A200000E9BEC08F0300E9BEC08F0400E9BEC28
:1007B20008F0400E9BEC08F0400E9BEC08F03F0E58
:1007C2009BEC08F0000E9BEC08F01200000E9BEC74
:1007D20008F07F0E9BEC08F0080E9BEC08F0140E5C
:1007E2009BEC08F0220E9BEC08F0410E9BEC08F00B
:1007F200000E9BEC08F01200000E9BEC08F07F0E3E
:100802009BEC08F0400E9BEC08F0400E9BEC08F0CD
:10081200400E9BEC08F0400E9BEC08F0000E9BECA7
:1008220008F01200000E9BEC08F07F0E9BEC08F023
:10083200020E9BEC08F00C0E9BEC08F0020E9BECF7
:1008420008F07F0E9BEC08F0000E9BEC08F0120003
:10085200000E9BEC08F07F0E9BEC08F0020E9BEC66
:1008620008F0040E9BEC08F0080E9BEC08F07F0EDB
:100872009BEC08F0000E9BEC08F01200000E9BECC3
:1008820008F03E0E9BEC08F0410E9BEC08F0410E86
:100892009BEC08F0410E9BEC08F03E0E9BEC08F03E
:1008A200000E9BEC08F01200000E9BEC08F07F0E8D
:1008B2009BEC08F0090E9BEC08F0090E9BEC08F08B
:1008C200090E9BEC08F0060E9BEC08F0000E9BEC68
:1008D20008F01200000E9BEC08F01E0E9BEC08F0D4
:1008E200210E9BEC08F0210E9BEC08F0210E9BECF4
:1008F20008F05E0E9BEC08F0000E9BEC08F0120074
:10090200000E9BEC08F07F0E9BEC08F0090E9BECAE
:1009120008F0090E9BEC08F0090E9BEC08F0760E2D
:100922009BEC08F0000E9BEC08F01200000E9BEC12
:1009320008F0260E9BEC08F0490E9BEC08F0490EDD
:100942009BEC08F0490E9BEC08F0320E9BEC08F091
:10095200000E9BEC08F01200000E9BEC08F0010E5A
:100962009BEC08F0010E9BEC08F07F0E9BEC08F06C
:10097200010E9BEC08F0010E9BEC08F0000E9BECC4
:1009820008F01200000E9BEC08F03F0E9BEC08F002
:10099200400E9BEC08F0400E9BEC08F0400E9BECE6
:1009A20008F03F0E9BEC08F0000E9BEC08F01200E2
:1009B200000E9BEC08F01F0E9BEC08F0200E9BEC47
:1009C20008F0400E9BEC08F0200E9BEC08F01F0E86
:1009D2009BEC08F0000E9BEC08F01200000E9BEC62
:1009E20008F07F0E9BEC08F0200E9BEC08F0100E36
:1009F2009BEC08F0200E9BEC08F07F0E9BEC08F0BD
:100A0200000E9BEC08F01200000E9BEC08F0410E69
:100A12009BEC08F0220E9BEC08F01C0E9BEC08F0FD
:100A2200220E9BEC08F0410E9BEC08F0000E9BECB2
:100A320008F01200000E9BEC08F0070E9BEC08F089
:100A4200080E9BEC08F0700E9BEC08F0080E9BEC75
:100A520008F0070E9BEC08F0000E9BEC08F0120069
:100A6200000E9BEC08F0610E9BEC08F0510E9BEC23
:100A720008F0490E9BEC08F0450E9BEC08F0430E83
:100A82009BEC08F0000E9BEC08F01200000E9BECB1
:100A920008F03E0E9BEC08F0510E9BEC08F0490E5C
:100AA2009BEC08F0450E9BEC08F03E0E9BEC08F028
:100AB200000E9BEC08F01200000E9BEC08F0040EF6
:100AC2009BEC08F0020E9BEC08F07F0E9BEC08F00A
:100AD200000E9BEC08F0000E9BEC08F0000E9BEC65
:100AE20008F01200000E9BEC08F0420E9BEC08F09E
:100AF200610E9BEC08F0510E9BEC08F0490E9BEC4A
:100B020008F0460E9BEC08F0000E9BEC08F0120079
:100B1200000E9BEC08F0220E9BEC08F0410E9BECC1
:100B220008F0490E9BEC08F0490E9BEC08F0360EDB
:100B32009BEC08F0000E9BEC08F01200000E9BEC00
:100B420008F0180E9BEC08F0140E9BEC08F0120E45
:100B52009BEC08F07F0E9BEC08F0100E9BEC08F06B
:100B6200000E9BEC08F01200000E9BEC08F0270E22
:100B72009BEC08F0450E9BEC08F0450E9BEC08F050
:100B8200450E9BEC08F0390E9BEC08F0000E9BEC36
:100B920008F01200000E9BEC08F03E0E9BEC08F0F1
:100BA200490E9BEC08F0490E9BEC08F0490E9BECB9
:100BB20008F0320E9BEC08F0000E9BEC08F01200DD
:100BC200000E9BEC08F0010E9BEC08F0010E9BEC72
:100BD20008F0710E9BEC08F0090E9BEC08F0070E72
:100BE2009BEC08F0000E9BEC08F01200000E9BEC50
:100BF20008F0360E9BEC08F0490E9BEC08F0490E0B
:100C02009BEC08F0490E9BEC08F0360E9BEC08F0CA
:100C1200000E9BEC08F01200000E9BEC08F0260E72
:100C22009BEC08F0490E9BEC08F0490E9BEC08F097
:100C3200490E9BEC08F03E0E9BEC08F0000E9BEC7C
:100C420008F01200000E9BEC08F0000E9BEC08F07E
:100C5200000E9BEC08F0000E9BEC08F0000E9BECE3
:100C620008F01200FF0E9BEC08F0FF0E9BEC08F060
:100C7200FF0E9BEC08F0FF0E9BEC08F0FF0E9BECC6
:100C820008F01200FF0E9BEC08F01200000E9BEC25
:100C920008F00C0E9BEC08F0120E9BEC08F0120E02
:100CA2009BEC08F00C0E9BEC08F0000E9BEC08F09D
:100CB20012000250140AD8B4E5D7340AD8B4C2D705
:100CC2000A0AD8B4E3D71A0AD8B4E0D6010AD8B4CB
:100CD200F3D6030AD8B406D7010AD8B419D7070A3B
:100CE200D8B42CD7010AD8B43FD7030AD8B452D704
:100CF200010AD8B465D70F0AD8B478D7010AD8B494
:100D02008BD7780AD8B486D4030AD8B499D4010A06
:100D1200D8B4ACD4070AD8B4BFD4010AD8B4D2D458
:100D2200030AD8B4E5D4010AD8B4F8D40F0AD8B467
:100D32000BD5010AD8B41ED5030AD8B431D5010A9D
:100D4200D8B444D5070AD8B457D5010AD8B46AD55D
:100D5200030AD8B47DD5010AD8B490D51F0AD8B4F5
:100D6200A3D5010AD8B4B6D5030AD8B4C9D5010AA5
:100D7200D8B4DCD5070AD8B4EFD5010AD8B402D664
:100D8200030AD8B415D6010AD8B428D60F0AD8B4A3
:100D92003BD6010AD8B44ED6030AD8B461D6260A85
:100DA200D8A412005FD76AEC08F07EEC08F0BFEC22
:100DB20008F07EEC08F0000E11EC08F001C020F003
:100DC20002C021F0010E11EC08F001C022F002C0B5
:100DD20023F0020E11EC08F001C024F002C025F04D
:100DE200000E036E000EB2EC08F0010E036E060E4A
:100DF200046E9DEC07F0000E036E460EB2EC08F096
:100E020020C008F021C009F040EC07F00A0E036E82
:100E1200000EB2EC08F0060E036E060E046E9DEC98
:100E220007F00A0E036E460EB2EC08F022C008F07C
:100E320023C009F040EC07F0140E036E000EB2EC72
:100E420008F00B0E036E060E046E9DEC07F0140EF6
:100E5200036E460EB2EC08F024C008F025C009F07B
:100E620040EC07F0030E1F6E080E1E6E770EE82E82
:100E7200FED71E2EFCD71F2EFAD700F09AD7010EEE
:100E82001C6E000E1D6E0F0E1D6401D02FD01D5062
:100E9200010D0C0EF324D96E000EF420DA6E000E52
:100EA200DF6E1D2AF0D71C50010D0C0EF324D96EF3
:100EB200000EF420DA6E08C001F009C002F0000E44
:100EC200046E0A0E036EF0EC07F00150DF6E08C0EC
:100ED20001F009C002F0000E046E0A0E036EC7ECA8
:100EE20007F001C008F002C009F01C2A08500910DE
:100EF200D8A4D9D71C500A6E0B6A010E0A26000E1E
:100F02000B220C0E0A24D96E000E0B20DA6E000E94
:100F1200DF6E1CC01DF01D50D8B412001D50010D13
:100F22000C0EF324D96E000EF420DA6EDF50300F6F
:100F320009EC03F01D06EFD7000E076E13D0075021
:100F4200010D03C005F004C006F0F3500526F4506D
:100F5200062205C0F6FF06C0F7FF0800F55009ECAF
:100F620003F0072A0750010D03C005F004C006F084
:100F7200F3500526F450062205C0F6FF06C0F7FF1F
:100F82000800F5500009D8B41200D9D7000E066E39
:100F9200000E056E03500410D8B41CD0010E076E6B
:100FA20004D0D89003360436072A04AEFAD7D89074
:100FB200053606360350015C04500258D8A005D00D
:100FC2000350015E0450025A0580D8900432033265
:100FD200072EEDD705C001F006C002F01200035043
:100FE2000410D8B418D0010E056E04D0D890033680
:100FF2000436052A04AEFAD70350015C04500258A5
:10100200D8A004D00350015E0450025AD890043292
:101012000332052EF1D701C001F002C002F0120026
:10102200046E050E046405D0000E026E000E016E01
:101032001200000EC26EC2800444E846FC0BC212CB
:101042000B0E036E620EE82EFED7032EFCD700D0E5
:10105200C282C2B2FED7C290C3CF01F0C4CF02F0A7
:101062001200056E05C003F0000EB2EC08F005C0D8
:1010720003F0400EB2EC08F08188000E076E000EFD
:10108200066E07BE06D007500AE1410E065CD8B0D4
:101092001200000E9BEC08F0064A072AF2D7120053
:1010A200026E81908192400E026005D08188819A01
:1010B20002C001F005D0818A81980250C00F016EF2
:1010C200015040097F0B016E01C083FFA7EC08F0BD
:1010D2001200000E956E000E936E000E836E000ECF
:1010E200816E81868188818A8188818A81908192BC
:1010F2003F0E836EA7EC08F01200000E096E000E80
:10110200086E09500AE1080E085CD8B012000850B7
:1011120032EC08F0084A092AF4D71200016E8190D5
:1011220081920150B809BF0B026E02C083FFA7EC87
:1011320008F01200016E8180819201C083FF060EC9
:10114200E82EFED700D0A7EC08F012008184060E2C
:10115200E82EFED700D08194060EE82EFED700D0EE
:101162001200046E045051EC08F003508FEC08F0AA
:101172001200000EF86E0001D4EF06F0000EC16EF0
:061182008A0EC06E12008F
:020000040020DA
:08000000FFFFFFFFFFFFFFFF00
:020000040030CA
:0E000000FF03193CFF9580FF0FC00FE00F407B
:00000001FF
